:020000040000FA
:0600000092EF13F0120064
:0600080004EF08F01200F5
:060018000CEF08F01200DD
:0610000092EF13F0120054
:0610080094EF0EF012004F
:06101800DFEF0EF01200F4
:06102A0001006227000036
:08103000980000000700000019
:081038005FEC0EF0A09A6A6A59
:10104000686A706AAAEC0DF0F7EC0DF0DF6AE0EC6C
:101050000DF003E290EC0DF0FAD76D8C6E6A6D988E
:101060006D9C68A607D068960001736B786B796BEE
:101070007A6BF7D70001010E8A6F8B6F8C6B8D6BCB
:10108000806BDF6A020EDF5C11E2EA6ADF3462EC39
:101090000EF0EA22EE6AED6AEA6ADF3469EC0EF0DD
:1010A000EA22EE6AED6AA0EC0DF0ECD70001080E22
:1010B0006B6F040E6C6F160E706E0401200E026FC3
:1010C000040E036F080E016F840E006F0001616B48
:1010D000606BE5526AEF0DF05FEC0EF00001600509
:1010E00007E16DBA05D0686A69806988020E606F91
:1010F0006850040B05E06950040B02E0689498D82E
:101100006DB245D06850010B09E06950010B06E053
:1011100093DFA08A0001040E606F68906850100B86
:1011200005E06950100B02E078D8689868AC0FD0E1
:1011300069AC05D0FEEC0DF0730E57EC0DF0689C19
:101140000001885101E08807885101E120DA6850E8
:10115000200B04E06950200B01E04CD86850020BD2
:101160000BE06950020B08E0FEEC0DF0E6687F0E24
:10117000E66E70EC0EF06A6A040E0001E76E60190C
:10118000E8AE02D0E73402D0E750605D02E2A19AF7
:101190002ED069A62BD0DF6A040EDF5C27E268A69A
:1011A00025D06CCF81F000018151780BE842E842F4
:1011B000E842826F689681B504D0825177EC0EF0D8
:1011C00003D082517CEC0EF0EA22EF70825102E1F2
:1011D0003DD80AD0000EE66EE66A810EE66E000E7D
:1011E000E66E720E57EC0DF0DF2AD6D7A19AE552C3
:1011F0006AEF0DF070A00FD076EC0DF0EF50800884
:1012000009E160EC0DF0EF50840804E176EC0DF09C
:101210008C0EEF6E7090689A1200698468986D82E7
:101220000001010E806FC6EC0DF0750E57EF0DF04A
:101230000001806BC6EC0DF0740E57EC0DF06D9252
:10124000699468A402D06894FCD712005FEC0EF099
:1012500000012D0E886FFD0E811540E17E0E811577
:10126000E8407F0B040DF3CF63F0F4CF64F0000E81
:101270006327040E642363C065F064C066F065757F
:1012800076EC0DF0EF503C0BE842E8420D0824E10B
:10129000DF6A080EDF5C1AE276EC0DF0020EE9263A
:1012A000000EB3EC0DF0EF50E66EDF50EA6A200F4F
:1012B000E96E040EEA22E552E750EF6E76EC0DF08F
:1012C0008BEC0EF0EE2AEF22DF2AE3D776EC0DF05E
:1012D0002BEC0EF00BD807D026D805D0FD0E8115CB
:1012E000040801E12FD8E5526AEF0DF000016F6BA1
:1012F000896B8C6B8D6B836B706BE2DBEF9E6B7518
:10130000DFDBEF9E6B751AEC0EF0EF9E736B746B68
:10131000756B786B796B7A6B50D8C6EC0DF0030E59
:10132000C6DB81EF0BF0020E0001705D02E1EDEF14
:101330000BF0706B835104E1B1DB8C0EEF6E120089
:10134000836B12005FEC0EF0BBDBEF50400B01E053
:10135000010EDF6E00016B75080E605D08E122C4AE
:101360006EFF6E5002E0100E01D0040E606F70052B
:1013700013E1A6DBC0DBF2D9020E00016F5D03E1D1
:101380009FDB840E07D0DF5003E19ADBC80E02D04A
:1013900097DB880EEF6E0FD078AF0CD07B517C11AD
:1013A00007E005D07CC0FAFF00017B51F96EFADF3F
:1013B0000001789F706BE5528DD304012051600BC2
:1013C000E842E842E842E842E842000901E012004F
:1013D00021510C0A45E00B0A3FE00C0A31E0010AFA
:1013E00022E00B0A1EE0020A1CE0030A18E0080AC9
:1013F00010E0010A0CE00F0A08E0030A01E0120005
:101400000001738F080E606F120009EF0BF051EFAF
:101410000CF00001610E716F000E726F0CD046EF80
:101420000BF031EF0AF024510001716F726B620E04
:101430007127000E72237381010E746F738F120077
:101440000001738F04012451EA6A620FE96E000EF5
:10145000EA2222C4EFFF120099DB020E57EF0DF0D3
:10146000120033DB050EE1260401220510E12051B4
:101470001F0B00090CE10001738F030E0401215DB5
:1014800004E10001010E7F6F02D000017F6B0401B7
:10149000225101E075D020511F0B020871E1245147
:1014A0000F0B00096DE024510F0B010869E3200EBA
:1014B0000001605D65E1738F040124BF04D0E6DBA9
:1014C0006BDB70DB03D0E7DB67DB70DBEA22020E4D
:1014D000EFCFDBFF9ADB010B03E1000EDF9401D0BD
:1014E000DF8424BF02D0D2DB01D0D5DBEA22DECFFD
:1014F000EEFFDDCFEDFF030E215D0DE1D1DB07E057
:1015000024BF02D04FDB01D051DBEA22EF82840EF0
:1015100090EC0EF035D0DF74C3DB06E0CCDAEF9E42
:10152000CADAEF8CA2DB02D0C6DAEF8CDF746DDB97
:10153000020B02E1B5DB0DE0040124BF02D032DB77
:1015400001D034DBEA22EF923B0E0B6EDADB8DDB4F
:1015500002D03B0ED6DB040124510F0B0C6A700F36
:101560000B6E0F0E0C22030E0BC0DBFF040E0CC023
:10157000DBFF030EDBCFE9FF040EDBCFEAFFEF90CA
:10158000050EE15C02E2E16AE552E16EA3D20001E0
:101590008A5121E1010E8A6F8B511DE1010E8B6F83
:1015A000020E705D07E18CDAEE52EF6A89DAC80E3E
:1015B000EF6E120070050FE1836B98DAEE52080EA1
:1015C000EF6E94DA48DB92DA840EEF6E010E836FD1
:1015D00065DA800EEF6E120000018C6B8D6B020ECF
:1015E000705D04E192DB87DA25DB10D074510401D1
:1015F000265D000175510401275904E226C474F0E8
:1016000027C475F0ABD85CDA76DA5ADAC80EEF6E1A
:101610001200800E0401205D38E10001C00E736FDE
:1016200004012351030A1AE0010A09E0030A2BE12D
:101630000001D00E716F240E726F120E1ED0F3DAFD
:101640008D0EF626250EC4DA020E0001E5DAF5CF7E
:1016500074F0030EE1DAF5CF75F01200030E225D8F
:101660000FE2E1DA8F0EF626250EB2DA71C0F6FF30
:1016700072C0F7FF0800F5500001746F756B12001F
:101680000001736B12000001736B1200EADA0401AF
:10169000286B296B20511F0B020A11E0030A0CE092
:1016A000010A1EE10001738F0401288100017F05FA
:1016B00017E10401288314D00001738F11D00001B9
:1016C000738F040124BF02D0E1DA01D0E4DA64DAD6
:1016D000E7DA06E0F0D9EF50040B02E0010E286FC4
:1016E000000173AF07D0280E716F040E726F738103
:1016F000020E746F020EE15C02E2E16AE552E16EF5
:10170000E9D16D98000173BF0DD078AF09D0020EFA
:10171000706F8D5101E160DF00018B6B8A6B1200ED
:101720003FEF0EF0040120AF0DD00001010E706FED
:101730008C5101E151DF00018B6B8A6B89510DE106
:10174000C7EF0AF00001020E706FA8D9840EEF6E89
:101750008B6B8A6B895101E11ADF1200B0DA080E37
:10176000DF6E0001745D000E75590AE274C0DFFF80
:101770006F5102E1010E03D06F0502E1020E6F6F9F
:10178000DF500C6AE850745D746F0C507559756FBA
:1017900097D9EE52DFCFEFFF280E7D6F040E7E6FDC
:1017A00073B10DD0DF5017E071C0F6FF72C0F7FFC4
:1017B000712B000E72230800F550DBD9F3D7DF50F0
:1017C0000AE071C0E9FF72C0EAFF712B000E7223BC
:1017D000EF50CFD9F4D7E5527DD143DA87D9EE5215
:1017E000EFCFDFFFDFCF0BF00B500001795D000E74
:1017F0007A5902E279C0DFFFDF500B6E0C6AE850C5
:10180000795D796F0C507A597A6F010EDB6ADF507F
:10181000F36E010EDBCFF4FFF350F45C16E2010E21
:10182000DB50EA6A280FE96E040EEA22EF50E66EFA
:1018300076C0E9FF77C0EAFF762B000E7723E552EA
:10184000E750EF6E010EDB2AE2D7000ED880795503
:10185000000E7A550DE259DA4ED948D9EF50400BB7
:1018600003E1E8D9C80E02D0E5D9880EEF6E12D098
:1018700015D9840EEF6E7B517C1107E005D07CC03A
:10188000FAFF00017B51F96EFADF0001789F895160
:1018900001E17DDE020EE15C02E2E16AE552E16E09
:1018A00019D10DDA0001738F55D9DF6A89D902E2A7
:1018B00037D9FCD76D8CDF6A020EDF5C02E240D9BB
:1018C000FBD7010EE66EE66AE66A620EE66E000E71
:1018D000EED96D9C0001080E6B6F040E6C6F000E4C
:1018E000636F040E646F63C065F0666F22C461F0BD
:1018F000615102E1100E0BD0010EE66EE66A610E38
:10190000E66E000EE66E010ED2D80001200E606F6A
:10191000E552E0D0A6D9000EDE6E040EDD6EF1D8E1
:10192000040DF4CF0CF0D9CFE9FFDACFEAFFF35082
:10193000EE260C50ED22BFD8EF9EFD0EDB5002E1EB
:10194000EAD801D0AFD8EA22DECFEEFFDDCFEDFF3F
:10195000B2D8EF9CB0D8040EE926000EEA22EF8C34
:10196000020EE15C02E2E16AE552E16EB3D079D9A0
:10197000FD0EDBA402D0E66A33D9FD0EDBA203D054
:10198000010EE66E2DD9FE0EDB500C6A700F0B6E49
:101990000F0E10D990D8FD0EDBCFEFFF020EE15CE9
:1019A00002E2E16AE552E16E95D05BD9FE0EDB50B2
:1019B00002E165D905D0A5D842D9A3D8010F3FD9F6
:1019C000020EE15C02E2E16AE552E16E83D049D9A0
:1019D000FD0EDB5002E066D801D09DD8DDD8D9CF0E
:1019E000E9FFDACFEAFFEE50ED1003E1F36AF46AA3
:1019F00021D061D890D9FB0EDBCFEEFFFC0EDBCF00
:101A0000EDFF59D8EE52FA0EDBCFEFFF400E79D939
:101A1000880E86D9FD0EDB5002E044D801D07BD879
:101A2000EA22EF74DECF0BF0DDCF0CF00BC0F3FF3A
:101A30000CC0F4FF020EE15C02E2E16AE552E16EE5
:101A400049D043D86DA812D02FD9400EEE16EE6AB9
:101A5000EE6AEE6A29D9EE7C25D8EA22EF74400EB0
:101A60000B6E22D90B50EF161FD9EF7C33D06D6A65
:101A7000696A0001606B1200000160510EE16D6A3D
:101A8000696AB5D8D08EA28AA08AF28E6DB602D0CD
:101A90006D86FCD70001010E606F120036D9DBD8CD
:101AA0001AEF0EF0FE0EEA6ADB3462EF0EF0E66E1D
:101AB000E66A70EF0EF0DECFE9FFDDCFEAFF12003D
:101AC0006BC0E9FF6CC0EAFF1200D9CFE6FFE1CF9F
:101AD000D9FF1200E552E7CFD9FF120024510F0BB6
:101AE000E96EEA6AD890E936EA36120063C0E9FF87
:101AF00064C0EAFF12000FD9280EEE6E040EED6EE0
:101B00001200FD0EDB50E8240D6EFE0EDB50040DBE
:101B1000F3500D241200FE0EEA6ADB3469EF0EF07A
:101B2000DF50040DF3CFE9FFF4CFEAFF000EE92602
:101B3000040EEA22EE6AEE6AEE6AEE6ADF2A12000C
:101B4000DF50DAD8EA22EF6ADF50D1D8EA22EF6A12
:101B5000DF2A1200010EE66EE66AE66A710EE66E94
:101B60000F0E57EF0EF0EA22EE50EFCFEAFFE96ECC
:101B70001200E66E7DC0E9FF7EC0EAFF7D2B000EFD
:101B80007E23E552E750EF6EDF061200000EE66E90
:101B9000E66AE66EE66A1200EA22EECFDEFFEDCFDD
:101BA000DDFF120024510F0B77EF0EF024510F0BC5
:101BB0007CEF0EF00C220BC0DEFF0CC0DDFF12002C
:101BC000DF500B6E0C6A080E0B5C000E0C581200F6
:101BD000F7220900F5CF71F00A00F5CF72F012007C
:101BE000FE0EDBCFE6FF96DEE552E5521200160E42
:101BF0006F6E9F0E6B6E7B0E696E1200010EE66EAD
:101C0000E66A000EE66EE66A1200D950020FE96E2F
:101C1000DACFEAFFEF501200F76A7125F66E7251C3
:101C2000F722080012002251F66EF76AD890F636B5
:101C3000F736120065C0E9FF66C0EAFF1200040D26
:101C4000F3CF0BF0F4CF0CF0000E0B26040EB2DF36
:101C5000840E90EF0EF05FD8200EEE6E040EED6E47
:101C6000120033DF020EE1261200020EE66EE66A73
:101C7000DECFE6FFDDCFE6FF050E57EF0DF00EDFFE
:101C80008C0EEF6E1DDF840EEF6E120027DF670EE5
:101C9000E926000E120022DF6B0EE926000E12006C
:101CA0000ADFEF50800B1200FDDEB3EF0DF0E66EA1
:101CB00051EC13F00B6E050EE15E0B50120005DFC8
:101CC000E6521200FE0BEA36E96E6B0EE926000EB4
:101CD0001200FE0BEA36E96E670EE926000E1200CE
:101CE00042EC11F00B6E060EE15E0B501200EA6A38
:101CF000860FE96E000E1200EA6A840FE96E000E8C
:101D00001200D9DEE850EF16120094DFEE52080EF2
:101D1000EF6E1AEF0EF0020EE926000EEA22120014
:081D2000CADEE850EF121200C8
:081D2800DACFE4FFE2CFDAFF9D
:101D3000E9CFE4FFEACFE4FFF6CFE4FFF7CFE4FF1B
:101D4000F5CFE4FFF3CFE4FFF4CFE4FFFACFE4FFF5
:101D500000EE00F00B0EE80403E3EECFE4FFFBD748
:101D600000EE0BF0040EE80403E3EECFE4FFFBD734
:101D7000E6526CEC08F0E55200EE0EF0040EE804BA
:101D800003E3E5CFEDFFFBD700EE0AF00B0EE8040E
:101D900003E3E5CFEDFFFBD7E5CFFAFFE5CFF4FF97
:101DA000E5CFF3FFE5CFF5FFE5CFF7FFE5CFF6FF92
:101DB000E5CFEAFFE5CFE9FFE5CFDAFF1100D8CFA5
:101DC000E4FFE0CFE4FFE46EDACFE4FFE652E55251
:101DD000E5CFDAFFE550E5CFE0FFE5CFD8FF100013
:101DE000F0D8F30EE66E040EE66EA30EE66E1AEC65
:101DF00013F0E552E552E5523CEC0DF00E0E926EFA
:101E0000010E806E1F0E936EB00E816EECD8FED761
:101E1000A1DAABDA04E6080E0B5C000E0C5842E2C5
:101E2000A8DA070E061801E1075030E0060E061882
:101E300001E1075029E0050E061801E1075022E0F4
:101E4000040E061801E107501BE0030E061801E11D
:101E5000075014E0020E061801E107500DE0010ED4
:101E6000061801E1075006E0065012E1075010E1A4
:101E70008F0E0DD0970E0BD09F0E09D0A70E07D056
:101E8000C70E05D0CF0E03D0D70E01D0E70E7FDAF4
:101E9000AEEC13F0A9EC13F00009FCE13ADAB9E377
:101EA000DB2AB7D7040EE15C02E2E16AE55258D2C0
:101EB00051DA5BDA04E6040E0B5C000E0C5826E2E5
:101EC00058DA030E061801E1075014E0020E061856
:101ED00001E107500DE0010E061801E1075006E090
:101EE00006500AE1075008E18F0E05D0970E03D087
:101EF0009F0E01D0A70E4BDAAEEC13F0A9EC13F055
:101F00000009FCE106DAD5E3DB2AD3D7040EE15C55
:101F100002E2E16AE55224D21DDA020EDB6A030E08
:101F2000DB6ADE6ADD6A21DA04E6080E0B5C000E6D
:101F30000C5841E21EDA060E061801E1075014E0C3
:101F4000040E061801E107500DE0020E061801E12B
:101F5000075006E006500AE1075008E1CF0E05D011
:101F6000C70E03D0D70E01D0E70E11DAAEEC13F096
:101F7000A9EC13F00009FCE12CDA1EDA020EDBCF2B
:101F8000EFFF030EDBCF0EF00EC00DF00E6A32DA5B
:101F9000010E0B26000E0C22FD0EDB500B24E96E09
:101FA000FE0EDB500C20EA6E0DC0EFFF020EDE26A7
:101FB000000EDD22B8D7040EE15C02E2E16AE552D0
:101FC000CFD10F0EC11202D81CEF08F0F00E891607
:101FD00092169388938A0001986B996B9A6B9B6B0E
:101FE000010E9C6F1200DDD900019C5101E0D6D892
:101FF000200E0001E76E6019E8AE02D0E73402D08F
:10200000E750605D01E2AFD06D50020B01E0ABD054
:1020100000019851991102E1000E08D098C0E9FF23
:1020200099C0EAFFEF50800B01E0010E000901E0CA
:102030009AD005010051230A59E0140A3DE0B60A7E
:1020400019E0010A01E08ED000019C6B8A50800BE0
:1020500001E0010E0B6E8A50400B01E0010E0B5C9B
:1020600003E18A7E89707ED08AAE02D089807AD0E0
:10207000899078D0850E406FDF0E89D9AEEC13F0D1
:10208000A9EC13F00009FCE1A0EC13F0F3CF42F54A
:102090000501F350000803E2050E416F01D0416BCA
:1020A00000019A519B1102E1000E03D069D901E0B1
:1020B000010E000957E149D000019A519B1102E13C
:1020C000000E03D05DD901E0010E00094BE16DD98E
:1020D00050D8F3CFDEFFF4CFDDFF0501370E406FA0
:1020E000DFCF41F5010EDBCF42F52FD0E00E811A94
:1020F0000151030A0AE0010A05E0030A0BE14CD989
:1021000087DE05D049D9D4DE02D046D905DFE552B5
:10211000E55210D0406941694269436944694569A3
:1021200046694769486949694A694B694C694D691B
:102130004E694F6900019A519B1102E1000E03D0D4
:102140001FD901E0010E00090BE1400EE66E24D913
:10215000010EE66E47D9F3CF9AF0F4CF9BF002D090
:10216000080E816EE9D8020EE15C02E2E16AE552F6
:10217000F7D017D91AD9C282C2B2FED7C350DF6EC8
:10218000010EC4CFDBFF36D90BC0F3FF0CC0F4FF48
:10219000020EE15C02E2E16AE552E2D000019D51EB
:1021A0009E1104E1100E9D6F270E9E6F9D07000E7D
:1021B0009E5B6DA207D09D519E112EE18A7E8ABE44
:1021C00013D027D00001605102E18A9E22D0600521
:1021D00002E18A8E09D0020E605D02E18A8E19D07A
:1021E000040E605D03E18A9E8A8C1200100E605D11
:1021F00006E100019D519E110FE18A7E0AD0200E5A
:10220000605D0AE100019D519E1106E18A7E8AAE61
:1022100002D08A9C12008A8C120012001200120056
:10222000120004EF12F012001E0EE66E010EE66EB2
:10223000B7EC0CF0E552E5529CEF11F000017F0580
:1022400020E1000180051DE1A09AE8DF6D92000108
:10225000806B0001100EA16F0E0EA26FA107000E81
:10226000A25BA151A211FAE16D84080EA16F070EC5
:10227000A26FA107000EA25BA151A211FAE16D9419
:10228000A08A1200BCD8FD0EDBCF06F0FE0EDBCF1D
:1022900007F0050E061801E1075036E0E868061859
:1022A00002E17F0E07182FE0030E061801E1075028
:1022B00028E0020E061801E1075021E0010E061881
:1022C00001E107501AE0740E061801E1075013E00F
:1022D000750E061801E107500CE0730E061801E1B7
:1022E000075005E0720E06180FE107500DD097DF7A
:1022F0000BD093DF09D092DF07D096DF05D093DFB4
:1023000003D08FDF01D08CDF010EE552E7CFD9FF7C
:1023100012005FD8020EDBCF0DF0030EDBCF0EF004
:10232000D8900E320D32D8900E320D3245D80DC0F5
:10233000EFFFDF2A010E1200400EE66E000EE66E81
:10234000050EE66EE66A010E4DD8F3CF98F0F4CF95
:1023500099F0120054D8040EE126DE6ADD6A1200FC
:10236000E16EE552E7CFD9FF120044D8D8900C5067
:102370001200000EDFCF06F0010EDBCF07F01200D7
:102380009AC0E9FF9BC0EAFFEF50800B1200E66E97
:102390006BEC13F0E5521200400EE66E050EE66E91
:1023A00012002DD8020EE12612009280010EC26E9C
:1023B0003C0EC06EC08E1200FD0EDBCF0BF0FE0E89
:1023C000DBCF0CF0DE500B24E96EDD500C20EA6E02
:1023D0001200A0EC13F0020EF3CFDBFF030EF4CFDC
:1023E000DBFF1200E66EE7EC0CF00B6E050EE15E13
:1023F0000B501200DECF0BF0DDCF0CF01200D9CF66
:08240000E6FFE1CFD9FF120055
:08240800040120511F0B010823
:1024100001E01200245101E01200060E215D1EE1D0
:102420002351230A1BE0010A0CE0030A17E1000113
:10243000610514E10001F40E716F240E726F090E34
:1024400009D0000161050AE10001710E716F250ECE
:10245000726F1C0E746F756BC00E736F0401205188
:10246000600BE842E842E842E842E842010801E045
:10247000120021510B0A26E0080A19E0090A11E0AE
:10248000080A05E00B0A23E0080A21E01200000117
:102490009F0E716F000E726F010E746F756BC10E1F
:1024A0000FD00001800E736F23C49FF01200000153
:1024B000A00E716F000E726F010E746F756B810E3E
:1024C000736F12000001800E736F22C4A0F012001F
:1024D0001201000200000008E8063F0602000102A7
:1024E000000109022900010100C0320904000002B4
:1024F00003000000092111010001221C00070581D1
:1025000003400001070501034000010403090434EE
:10251000034D006900630072006F0063006800698A
:10252000007000200054006500630068006E006FBA
:10253000006C006F0067007900200049006E0063A6
:10254000002E002E03530069006D0070006C0065C2
:102550000020004800490044002000440065007647
:10256000006900630065002000440065006D006F95
:10257000000600FF0901A1011901294015012540AC
:10258000750895408100190129409100C0E2240B93
:05259000250F25432585
:0A2596002A0EF66E100EF76E000E0E
:1025A000F86E00010900F550936F0900F550946F23
:1025B00003E1936701D03DD00900F5508E6F09000B
:1025C000F5508F6F0900F550906F09000900F55024
:1025D000E96E0900F550EA6E090009000900F5509E
:1025E000916F0900F550926F09000900F6CF95F040
:1025F000F7CF96F0F8CF97F08EC0F6FF8FC0F7FFB9
:1026000090C0F8FF0001915302E1925307E00900E6
:10261000F550EE6E9107F8E29207F9D795C0F6FFF4
:1026200096C0F7FF97C0F8FF00019307000E945B78
:04263000BFD71200FE
:0C263400D9CFE6FFDACFE6FFE1CFD9FFF7
:10264000E2CFDAFFC26AC06AFC0EDB407F0B3C0BB4
:10265000C26EFC0EDB38F00B300B0B6EFB0EDB504A
:102660000F0B0B10C16EFD0EDB50040DF350380B39
:102670000C6EFD0EDB380F0B070B0B6EFD0EDB50E7
:10268000800B0B100C10C06EFC0EDBAE03D09E9CBA
:102690009D8CF28CC280E552E5CFDAFFE7CFD9FFFF
:0226A000120026
:0E26A200FE0EE3CFE9FFFF0EE3CFEAFFE9CF24
:1026B000F3FFEACFF4FFFB0EE35003E1FC0EE3501F
:1026C00009E0FB0EE30602E2FC0EE306FD0EE3501A
:0626D000EE6EF1D71200CE
:0A26D600D9CFE6FFDACFE6FFE1CF2F
:1026E000D9FFE2CFDAFFC30EC2140B6EFD0EDB4042
:1026F0007F0B3C0B0B10C26EE552E5CFDAFFE7CF44
:04270000D9FF1200EB
:0C270400000EF36E00EE00F0080E01D88D
:102710001200EA6002D0EE6AFCD7F350E9601200C2
:04272000EE6AFCD78A
:0C27240013EE00F023EE00F0F86A0A9CAF
:10273000CBEC12F0B0EC13F0F0EC0EF0FBD7120083
:10274000C4500E6E0D6AC3500D10F36E0EC0F4FF30
:02275000120075
:0A275200C250020B01E0010E12005C
:04275C00C282120023
:02276000120065
:07276200000000000100006F
:020000040030CA
:0100000024DB
:010001000EF0
:010002003FBE
:010003001EDE
:010005008179
:010006008178
:010008000FE8
:01000900C036
:01000A000FE6
:01000B00E014
:01000C000FE4
:01000D0040B2
:00000001FF
